S01D000045534C315F30345F4C656453657175656E636556332E73726563F9
S11300000C9432000C9445050C946E050C949705E1
S11300100C944F000C944F000C944F000C944F0020
S11300200C944F000C944F000C944F000C944A060F
S11300300C944F000C944F000C944F000C944F0000
S11300400C944F000C944F000C944F000C944F00F0
S11300500C944F00A500E00023016E01C1011002C1
S11300605702940211241FBECFE5D8E0DEBFCDBFF6
S113007010E0A0E6B0E0E0E8FDE002C005900D92DB
S1130080A436B107D9F720E0A4E6B0E001C01D9280
S1130090A837B207E1F70E9409030C94BE060C943A
S11300A00000809165008F5F8093650080916500FA
S11300B0853011F410926500089581E08093670003
S11300C0089561E084E00E94F70261E085E00E9407
S11300D0F70261E086E00E94F70261E087E00E9497
S11300E0F70262E084E00E94EC0262E082E00E9497
S11300F0A50461E570E082E00E942C0580E690E0B2
S11301000E94C0050895809166008F5F8093660009
S113011080916600893019F481E080936600089527
S11301200F931F93CF93DF939B01E09166004E2FB3
S113013050E0FA013197E830F10508F0F9C189017E
S1130140EC01E65DFF4F0C949E06809164008111E2
S113015011C061E084E00E94FD02BE0180E090E0F5
S11301600E941E060E940A06809164008F5F80939D
S11301706400DEC18130B9F490916700913099F444
S11301801092670061E084E00E940303B80180E0FC
S113019090E00E941E060E940A06809164008F5F10
S11301A080936400C5C1823009F0C2C180916700A8
S11301B0813009F0BDC11092670010926400B8C18B
S11301C080916400811115C061E084E00E94FD0209
S11301D061E085E00E94FD02BE0180E090E00E94A3
S11301E01E060E940A06809164008F5F809364005B
S11301F09FC18130D9F4909167009130B9F4109285
S1130200670061E084E00E94030361E085E00E94EE
S11302100303B80180E090E00E941E060E940A06D3
S1130220809164008F5F8093640082C1823009F002
S11302307FC180916700813009F07AC11092670014
S11302401092640075C180916400811119C061E04D
S113025084E00E94FD0261E085E00E94FD0261E00D
S113026086E00E94FD02BE0180E090E00E941E062E
S11302700E940A06809164008F5F8093640058C1D5
S11302808130F9F4909167009130D9F410926700AD
S113029061E084E00E94030361E085E00E940303BF
S11302A061E086E00E940303B80180E090E00E94D0
S11302B01E060E940A06809164008F5F809364008A
S11302C037C1823009F034C180916700813009F070
S11302D02FC110926700109264002AC180916400BB
S11302E081111DC061E084E00E94FD0261E085E0AF
S11302F00E94FD0261E086E00E94FD0261E087E069
S11303000E94FD02BE0180E090E00E941E060E9451
S11303100A06809164008F5F8093640009C1813074
S113032019F5909167009130F9F41092670061E03B
S113033084E00E94030361E085E00E94030361E01E
S113034086E00E94030361E087E00E940303B80192
S113035080E090E00E941E060E940A0680916400DC
S11303608F5F80936400E4C0823009F0E1C0809123
S11303706700813009F0DCC01092670010926400BD
S1130380D7C08091640081111DC061E084E00E94A7
S1130390030361E085E00E94FD0261E086E00E94C3
S11303A0FD0261E087E00E94FD02BE0180E090E072
S11303B00E941E060E940A06809164008F5F80934B
S11303C06400B6C08130F9F4909167009130D9F49B
S11303D01092670061E085E00E94030361E086E01B
S11303E00E94030361E087E00E940303B80180E0F8
S11303F090E00E941E060E940A06809164008F5FAE
S11304008093640095C0823009F092C080916700A7
S1130410813009F08DC0109267001092640088C08A
S113042080916400811119C061E085E00E9403039A
S113043061E086E00E94FD0261E087E00E94FD0227
S1130440BE0180E090E00E941E060E940A06809190
S113045064008F5F809364006BC08130D9F4909105
S113046067009130B9F41092670061E086E00E9461
S1130470030361E087E00E940303B80180E090E099
S11304800E941E060E940A06809164008F5F80937A
S113049064004EC0823009F04BC080916700813007
S11304A009F046C0109267001092640041C0809128
S11304B06400811115C061E086E00E94030361E0DD
S11304C087E00E94FD02BE0180E090E00E941E06CB
S11304D00E940A06809164008F5F8093640028C0A4
S11304E08130B9F490916700913099F410926700CB
S11304F061E087E00E940303B80180E090E00E947D
S11305001E060E940A06809164008F5F8093640037
S11305100FC0823069F480916700813049F41092F1
S113052067001092640004C061E087E00E94030346
S1130530DF91CF911F910F910895CF93DF931F9275
S1130540CDB7DEB71982AE014F5F5F4F62E084E042
S11305500E94F2028981813069F407C0AE014F5FC5
S11305605F4F62E084E00E94F20289818130B1F33E
S11305700E948300809165008230C9F028F48823AA
S113058041F0813069F0DFCF8330C1F08430E9F08D
S1130590DACF64E873E084E690E00E949000D3CF61
S11305A060E273E088EC90E00E949000CCCF6CEBAA
S11305B072E08CE291E00E949000C5CF64EF71E09C
S11305C084EF91E00E949000BECF68EC70E080E27E
S11305D093E00E949000B7CF40E00E941003811185
S11305E081E008950E944E04811181E0089541E064
S11305F00E941003811181E0089541E00E94AF033D
S1130600811181E0089540E00E94AF03811181E0EF
S113061008950E9461000E949D0280E090E0089588
S1130620883008F090C0613051F138F0623009F43C
S113063048C0633009F466C088C041110FC04AB392
S113064021E030E0B90102C0660F771F8A95E2F716
S1130650CB01809584238ABB80E00895413009F062
S113066076C04AB321E030E0B90102C0660F771FBB
S11306708A95E2F7CB01842B8ABB80E0089541116F
S11306800FC047B321E030E0B90102C0660F771F05
S11306908A95E2F7CB018095842387BB80E0089597
S11306A0413009F056C047B321E030E0B90102C03F
S11306B0660F771F8A95E2F7CB01842B87BB80E016
S11306C0089541110FC044B321E030E0B90102C0E4
S11306D0660F771F8A95E2F7CB018095842384BB4C
S11306E080E008954130B9F544B321E030E0B90128
S11306F002C0660F771F8A95E2F7CB01842B84BB77
S113070080E0089541110FC041B321E030E0B90108
S113071002C0660F771F8A95E2F7CB018095842388
S113072081BB80E008954130C1F441B321E030E061
S1130730B90102C0660F771F8A95E2F7CB01842BBB
S113074081BB80E0089581E0089581E0089581E00F
S1130750089581E0089581E0089581E00895883046
S113076008F090C0613051F138F0623009F448C0AB
S1130770633009F466C088C041110FC04BB321E057
S113078030E0B90102C0660F771F8A95E2F7CB010A
S1130790809584238BBB80E00895413009F076C0B6
S11307A04BB321E030E0B90102C0660F771F8A9590
S11307B0E2F7CB01842B8BBB80E0089541110FC07D
S11307C048B321E030E0B90102C0660F771F8A9573
S11307D0E2F7CB018095842388BB80E00895413003
S11307E009F056C048B321E030E0B90102C0660FF9
S11307F0771F8A95E2F7CB01842B88BB80E00895AC
S113080041110FC045B321E030E0B90102C0660FC9
S1130810771F8A95E2F7CB018095842385BB80E01E
S113082008954130B9F545B321E030E0B90102C083
S1130830660F771F8A95E2F7CB01842B85BB80E096
S1130840089541110FC042B321E030E0B90102C064
S1130850660F771F8A95E2F7CB018095842382BBCC
S113086080E008954130C1F442B321E030E0B901A1
S113087002C0660F771F8A95E2F7CB01842B82BBF7
S113088080E0089581E0089581E0089581E008956D
S113089081E0089581E0089581E00895883008F0AA
S11308A040C06130A1F028F06230F9F0633059F1B2
S11308B03AC029B330E0B90102C0759567958A95AD
S11308C0E2F7CB018170FA01808380E0089526B3BA
S11308D030E0B90102C0759567958A95E2F7CB01BE
S11308E08170FA01808380E0089523B330E0B90178
S11308F002C0759567958A95E2F7CB018170FA017C
S1130900808380E0089520B330E0B90102C075957A
S113091067958A95E2F7CB018170FA01808380E0C4
S1130920089581E0089581E00895813029F48FB716
S113093080688FBF80E00895811105C08FB78F77DD
S11309408FBF80E0089581E00895CF93DF93C82F8F
S1130950D62F81E00E949504C13099F120F0C23075
S113096009F45DC072C0D11107C085B78E7F85BF01
S113097085B78D7F85BF20C0D13039F485B78E7F90
S113098085BF85B7826085BF17C0D23039F485B77B
S1130990816085BF85B7826085BF0EC0D33039F4CE
S11309A085B7816085BF85B78D7F85BF05C080E031
S11309B00E94950481E04DC08BB780648BBF80E0BA
S11309C048C0D11107C085B78B7F85BF85B7877FA6
S11309D085BF20C0D13039F485B78B7F85BF85B7FB
S11309E0886085BF17C0D23039F485B7846085BF6D
S11309F085B7886085BF0EC0D33039F485B784606D
S1130A0085BF85B7877F85BF05C080E00E949504B8
S1130A1081E01FC08BB780688BBF80E01AC0D130E3
S1130A2021F484B78F7B84BF0BC0D23021F484B708
S1130A30806484BF05C080E00E94950481E009C001
S1130A408BB780628BBF80E004C080E00E94950475
S1130A5081E0DF91CF910895811105C070936D00FD
S1130A6060936C000895813031F470936B0060934F
S1130A706A0080E00895823031F4709369006093D5
S1130A80680080E0089581E008951F920F920FB6E8
S1130A900F9211242F933F934F935F936F937F9300
S1130AA08F939F93AF93BF93EF93FF93E0916C0069
S1130AB0F0916D00309709F00995FF91EF91BF9186
S1130AC0AF919F918F917F916F915F914F913F91E2
S1130AD02F910F900FBE0F901F9018951F920F9299
S1130AE00FB60F9211242F933F934F935F936F93FD
S1130AF07F938F939F93AF93BF93EF93FF93E09173
S1130B006A00F0916B00309709F00995FF91EF911D
S1130B10BF91AF919F918F917F916F915F914F9111
S1130B203F912F910F900FBE0F901F9018951F9219
S1130B300F920FB60F9211242F933F934F935F930D
S1130B406F937F938F939F93AF93BF93EF93FF9391
S1130B50E0916800F0916900309709F00995FF91E0
S1130B60EF91BF91AF919F918F917F916F915F9121
S1130B704F913F912F910F900FBE0F901F9018959A
S1130B80FC01892B09F442C08081813071F028F086
S1130B90823099F08330C9F020C083B7877F83BF48
S1130BA083B78F7B83BF80E019C083B7886083BF1E
S1130BB083B78F7B83BF80E011C083B7886083BF16
S1130BC083B7806483BF80E009C083B7877F83BF16
S1130BD083B7806483BF80E001C082E0811119C0C3
S1130BE09181911116C09081911113C0228133819A
S1130BF02115310569F030937300209372009FB77B
S1130C0090689FBF99B7916099BF089581E0089556
S1130C1083E0089583B7816083BF83B78D7F83BFEB
S1130C2083B78B7F83BF089583B78E7F83BF83B7DA
S1130C308D7F83BF83B78B7F83BF08950F931F93EB
S1130C409B01AC01A8EEB3E00E94A406072F182F65
S1130C50292F332700937400109375002093760096
S1130C6030937700619562BF809174009091750014
S1130C70A0917600B09177000196A11DB11D8093DB
S1130C80740090937500A0937600B09377001F9141
S1130C900F9108951F920F920FB60F9211242F9364
S1130CA03F934F935F936F937F938F939F93AF93F0
S1130CB0BF93EF93FF9380916E0090916F00A0918A
S1130CC07000B09171004091740050917500609172
S1130CD076007091770084179507A607B70791F4FB
S1130CE010926E0010926F001092700010927100BA
S1130CF00E941406E0917200F0917300309769F03D
S1130D0009950BC00196A11DB11D80936E009093AF
S1130D106F00A0937000B0937100FF91EF91BF91A9
S1130D20AF919F918F917F916F915F914F913F917F
S1130D302F910F900FBE0F901F901895EE0FFF1F6D
S1130D400590F491E02D09940E94AF06A59F900DA3
S1130D50B49F900DA49F800D911D11240895A29F0E
S1130D60B001B39FC001A39F700D811D1124911D7B
S1130D70B29F700D811D1124911D0895F894FFCF29
S1070D8000005D000E
S9030000FC
