:100000000C9432000C94A9020C94D2020C94FB02C2
:100010000C9444000C9444000C9444000C94440050
:100020000C9444000C9444000C9444000C94440040
:100030000C9444000C9444000C9444000C94440030
:100040000C9444000C9444000C9444000C94440020
:100050000C9444007A007F00840089008E00930095
:1000600098009D0011241FBECFE5D8E0DEBFCDBFB4
:1000700020E0A0E6B0E001C01D92A736B207E1F78C
:100080000E94B4000C942A030C940000809160003C
:100090008F5F8093600080916000893019F481E067
:1000A00080936000089560E080E00E94A20060E01C
:1000B00081E00E94A20060E082E00E94A20060E075
:1000C00083E00E94A20062E081E00E94090266E4EF
:1000D00070E081E00E9490020895E09160008E2F10
:1000E00090E0FC013197E830F105B8F7E65DFF4F8D
:1000F0000C94240360E080E00E94A800EECF60E052
:1001000081E00E94A800E9CF60E082E00E94A800A0
:10011000E4CF60E083E00E94A800DFCF60E080E0F1
:100120000E94AE00DACF60E081E00E94AE00D5CF41
:1001300060E082E00E94AE00D0CF60E083E00E94E9
:10014000AE00CBCF41E00E94BB00811181E0089559
:1001500041E00E945A01811181E0089540E00E942F
:100160005A01811181E008950E9453000E946D00A0
:1001700080E090E00895883008F090C0613051F13F
:1001800038F0623009F448C0633009F466C088C0B2
:1001900041110FC04AB321E030E0B90102C0660F3F
:1001A000771F8A95E2F7CB01809584238ABB80E094
:1001B0000895413009F076C04AB321E030E0B9013A
:1001C00002C0660F771F8A95E2F7CB01842B8ABBAA
:1001D00080E0089541110FC047B321E030E0B9013C
:1001E00002C0660F771F8A95E2F7CB0180958423C2
:1001F00087BB80E00895413009F056C047B321E045
:1002000030E0B90102C0660F771F8A95E2F7CB0193
:10021000842B87BB80E0089541110FC044B321E0D7
:1002200030E0B90102C0660F771F8A95E2F7CB0173
:100230008095842384BB80E008954130B9F544B3B0
:1002400021E030E0B90102C0660F771F8A95E2F71E
:10025000CB01842B84BB80E0089541110FC041B3D2
:1002600021E030E0B90102C0660F771F8A95E2F7FE
:10027000CB018095842381BB80E008954130C1F497
:1002800041B321E030E0B90102C0660F771F8A95C3
:10029000E2F7CB01842B81BB80E0089581E00895D3
:1002A00081E0089581E0089581E0089581E0089556
:1002B00081E00895883008F090C0613051F138F045
:1002C000623009F448C0633009F466C088C0411147
:1002D0000FC04BB321E030E0B90102C0660F771FB9
:1002E0008A95E2F7CB01809584238BBB80E008954B
:1002F000413009F076C04BB321E030E0B90102C0D3
:10030000660F771F8A95E2F7CB01842B8BBB80E0C9
:10031000089541110FC048B321E030E0B90102C097
:10032000660F771F8A95E2F7CB018095842388BBFF
:1003300080E00895413009F056C048B321E030E034
:10034000B90102C0660F771F8A95E2F7CB01842BB3
:1003500088BB80E0089541110FC045B321E030E033
:10036000B90102C0660F771F8A95E2F7CB0180952D
:10037000842385BB80E008954130B9F545B321E081
:1003800030E0B90102C0660F771F8A95E2F7CB0112
:10039000842B85BB80E0089541110FC042B321E05A
:1003A00030E0B90102C0660F771F8A95E2F7CB01F2
:1003B0008095842382BB80E008954130C1F442B32C
:1003C00021E030E0B90102C0660F771F8A95E2F79D
:1003D000CB01842B82BB80E0089581E0089581E009
:1003E000089581E0089581E0089581E0089581E015
:1003F0000895813029F48FB780688FBF80E0089519
:10040000811105C08FB78F778FBF80E0089581E09D
:100410000895CF93DF93C82FD62F81E00E94F90172
:10042000C13099F120F0C23009F45DC072C0D11121
:1004300007C085B78E7F85BF85B78D7F85BF20C0FC
:10044000D13039F485B78E7F85BF85B7826085BF8F
:1004500017C0D23039F485B7816085BF85B7826017
:1004600085BF0EC0D33039F485B7816085BF85B7AD
:100470008D7F85BF05C080E00E94F90181E04DC0FD
:100480008BB780648BBF80E048C0D11107C085B7AF
:100490008B7F85BF85B7877F85BF20C0D13039F47A
:1004A00085B78B7F85BF85B7886085BF17C0D23081
:1004B00039F485B7846085BF85B7886085BF0EC075
:1004C000D33039F485B7846085BF85B7877F85BF12
:1004D00005C080E00E94F90181E01FC08BB78068F1
:1004E0008BBF80E01AC0D13021F484B78F7B84BFEA
:1004F0000BC0D23021F484B7806484BF05C080E093
:100500000E94F90181E009C08BB780628BBF80E057
:1005100004C080E00E94F90181E0DF91CF9108954D
:10052000811105C070936600609365000895813065
:1005300031F4709364006093630080E0089582302A
:1005400031F4709362006093610080E0089581E06F
:1005500008951F920F920FB60F9211242F933F937D
:100560004F935F936F937F938F939F93AF93BF93BB
:10057000EF93FF93E0916500F0916600309709F0EA
:100580000995FF91EF91BF91AF919F918F917F91CD
:100590006F915F914F913F912F910F900FBE0F90F0
:1005A0001F9018951F920F920FB60F9211242F9340
:1005B0003F934F935F936F937F938F939F93AF93EB
:1005C000BF93EF93FF93E0916300F0916400309745
:1005D00009F00995FF91EF91BF91AF919F918F9194
:1005E0007F916F915F914F913F912F910F900FBE2F
:1005F0000F901F9018951F920F920FB60F92112413
:100600002F933F934F935F936F937F938F939F931A
:10061000AF93BF93EF93FF93E0916100F09162007D
:10062000309709F00995FF91EF91BF91AF919F919C
:100630008F917F916F915F914F913F912F910F908B
:100640000FBE0F901F901895EE0FFF1F0590F491AD
:08065000E02D0994F894FFCF9E
:00000001FF
