:100000000C9432000C9444000C9444000C94440072
:100010000C9444000C9444000C9444000C94440050
:100020000C9444000C9444000C9444000C94440040
:100030000C9444000C9444000C9444000C94440030
:100040000C9444000C9444000C9444000C94440020
:100050000C9444007E00880092009C00A600B00032
:10006000BA00C40011241FBECFE5D8E0DEBFCDBF6B
:1000700020E0A0E6B0E001C01D92A236B207E1F791
:100080000E94E8000C947E020C94000061E084E081
:100090000E94D60061E085E00E94D60061E086E023
:1000A0000E94D60061E087E00E94D60062E084E012
:1000B0000E94CB00089541E650E062E084E00E9497
:1000C000D10080916100813009F064C006C041E632
:1000D00050E062E084E00E94D100809161008130B4
:1000E000B1F3E09160008E2F90E08830910508F028
:1000F00051C0FC01E65DFF4F0C94780261E084E0A2
:100100000E94DC00809160008F5F80936000089502
:1001100061E085E00E94DC00809160008F5F809349
:100120006000089561E086E00E94DC00809160003C
:100130008F5F80936000089561E087E00E94DC009B
:10014000809160008F5F80936000089561E084E09B
:100150000E94E200809160008F5F809360000895AC
:1001600061E085E00E94E200809160008F5F8093F3
:100170006000089561E086E00E94E20080916000E6
:100180008F5F80936000089561E087E00E94E20045
:1001900010926000089540E00E94ED00811181E01E
:1001A00008950E942B02811181E0089541E00E9490
:1001B000ED00811181E0089541E00E948C018111E0
:1001C00081E0089540E00E948C01811181E0089552
:1001D0000E9446000E945B00FDCF883008F090C06E
:1001E000613051F138F0623009F448C0633009F4ED
:1001F00066C088C041110FC04AB321E030E0B901A8
:1002000002C0660F771F8A95E2F7CB0180958423A1
:100210008ABB80E00895413009F076C04AB321E0FE
:1002200030E0B90102C0660F771F8A95E2F7CB0173
:10023000842B8ABB80E0089541110FC047B321E0B1
:1002400030E0B90102C0660F771F8A95E2F7CB0153
:100250008095842387BB80E00895413009F056C023
:1002600047B321E030E0B90102C0660F771F8A95DD
:10027000E2F7CB01842B87BB80E0089541110FC0CA
:1002800044B321E030E0B90102C0660F771F8A95C0
:10029000E2F7CB018095842384BB80E00895413050
:1002A000B9F544B321E030E0B90102C0660F771F11
:1002B0008A95E2F7CB01842B84BB80E0089541113D
:1002C0000FC041B321E030E0B90102C0660F771FD3
:1002D0008A95E2F7CB018095842381BB80E0089565
:1002E0004130C1F441B321E030E0B90102C0660FF2
:1002F000771F8A95E2F7CB01842B81BB80E00895BC
:1003000081E0089583E0089582E0089582E00895F1
:1003100082E0089582E00895883008F090C061304E
:1003200051F138F0623009F448C0633009F466C016
:1003300088C041110FC04BB321E030E0B90102C0C9
:10034000660F771F8A95E2F7CB01809584238BBBDC
:1003500080E00895413009F076C04BB321E030E0F1
:10036000B90102C0660F771F8A95E2F7CB01842B93
:100370008BBB80E0089541110FC048B321E030E00D
:10038000B90102C0660F771F8A95E2F7CB0180950D
:10039000842388BB80E00895413009F056C048B3FB
:1003A00021E030E0B90102C0660F771F8A95E2F7BD
:1003B000CB01842B88BB80E0089541110FC045B369
:1003C00021E030E0B90102C0660F771F8A95E2F79D
:1003D000CB018095842385BB80E008954130B9F539
:1003E00045B321E030E0B90102C0660F771F8A955E
:1003F000E2F7CB01842B85BB80E0089541110FC04B
:1004000042B321E030E0B90102C0660F771F8A9540
:10041000E2F7CB018095842382BB80E008954130D0
:10042000C1F442B321E030E0B90102C0660F771F8A
:100430008A95E2F7CB01842B82BB80E0089581E0AE
:10044000089583E0089584E0089584E0089584E0A9
:10045000089584E008954115510509F443C088309A
:1004600008F042C06130A1F028F06230F9F063304A
:1004700059F13CC029B330E0B90102C075956795C8
:100480008A95E2F7CB018170FA01808380E00895BC
:1004900026B330E0B90102C0759567958A95E2F7F9
:1004A000CB018170FA01808380E0089523B330E0AE
:1004B000B90102C0759567958A95E2F7CB01817005
:1004C000FA01808380E0089520B330E0B90102C0D2
:1004D000759567958A95E2F7CB018170FA01808363
:1004E00080E0089585E0089581E0089583E008950F
:1004F000EE0FFF1F0590F491E02D0994F894FFCFC3
:00000001FF
