S01200004C65645F5365715F56312E737265638F
S11300000C9432000C943C000C943C000C943C0086
S11300100C943C000C943C000C943C000C943C006C
S11300200C943C000C943C000C943C000C943C005C
S11300300C943C000C943C000C943C000C943C004C
S11300400C943C000C943C000C943C000C943C003C
S11300500C943C0077007D00830089008F0095009C
S11300609B00A10011241FBECFE5D8E0DEBFCDBFA9
S11300700E943E000C9468020C940000CF93DF931E
S11300801F92CDB7DEB70E94490260E080E00E9473
S1130090B20060E081E00E94B20060E082E00E9471
S11300A0B20060E083E00E94B20062E080E00E945F
S11300B0A700198210E0AE014F5F5F4F62E080E05D
S11300C00E94AD0089818823B1F32FE58AEE90E088
S11300D0215080409040E1F700C00000E12FF0E0A3
S11300E0E830F10540F7E65DFF4F0C94620260E0F2
S11300F080E00E94B8001F5FDECF60E081E00E94D4
S1130100B8001F5FD8CF60E082E00E94B8001F5F94
S1130110D2CF60E083E00E94B8001F5FCCCF60E0E4
S113012080E00E94BE001F5FC6CF60E081E00E94B5
S1130130BE001F5FC0CF60E082E00E94BE001F5F70
S1130140BACF60E083E00E94BE0010E0B4CF40E08C
S11301500E94C400811181E008950E94020281116D
S113016081E0089541E00E94C400811181E0089576
S113017041E00E946301811181E0089540E00E9402
S11301806301811181E00895883008F090C06130E6
S113019051F138F0623009F448C0633009F466C0A4
S11301A088C041110FC04AB321E030E0B90102C058
S11301B0660F771F8A95E2F7CB01809584238ABB6B
S11301C080E00895413009F076C04AB321E030E080
S11301D0B90102C0660F771F8A95E2F7CB01842B21
S11301E08ABB80E0089541110FC047B321E030E09D
S11301F0B90102C0660F771F8A95E2F7CB0180959B
S1130200842387BB80E00895413009F056C047B38A
S113021021E030E0B90102C0660F771F8A95E2F74A
S1130220CB01842B87BB80E0089541110FC044B3F8
S113023021E030E0B90102C0660F771F8A95E2F72A
S1130240CB018095842384BB80E008954130B9F5C7
S113025044B321E030E0B90102C0660F771F8A95EC
S1130260E2F7CB01842B84BB80E0089541110FC0D9
S113027041B321E030E0B90102C0660F771F8A95CF
S1130280E2F7CB018095842381BB80E0089541305F
S1130290C1F441B321E030E0B90102C0660F771F19
S11302A08A95E2F7CB01842B81BB80E0089581E03D
S11302B0089581E0089581E0089581E0089581E042
S11302C0089581E00895883008F090C0613051F1BC
S11302D038F0623009F448C0633009F466C088C05D
S11302E041110FC04BB321E030E0B90102C0660FE9
S11302F0771F8A95E2F7CB01809584238BBB80E03E
S11303000895413009F076C04BB321E030E0B901E3
S113031002C0660F771F8A95E2F7CB01842B8BBB53
S113032080E0089541110FC048B321E030E0B901E5
S113033002C0660F771F8A95E2F7CB01809584236C
S113034088BB80E00895413009F056C048B321E0ED
S113035030E0B90102C0660F771F8A95E2F7CB013E
S1130360842B88BB80E0089541110FC045B321E080
S113037030E0B90102C0660F771F8A95E2F7CB011E
S11303808095842385BB80E008954130B9F545B359
S113039021E030E0B90102C0660F771F8A95E2F7C9
S11303A0CB01842B85BB80E0089541110FC042B37B
S11303B021E030E0B90102C0660F771F8A95E2F7A9
S11303C0CB018095842382BB80E008954130C1F441
S11303D042B321E030E0B90102C0660F771F8A956D
S11303E0E2F7CB01842B82BB80E0089581E008957D
S11303F081E0089581E0089581E0089581E0089501
S113040081E00895883008F040C06130A1F028F000
S11304106230F9F0633059F13AC029B330E0B901E0
S113042002C0759567958A95E2F7CB018170FA0150
S1130430808380E0089526B330E0B90102C0759549
S113044067958A95E2F7CB018170FA01808380E099
S1130450089523B330E0B90102C0759567958A9574
S1130460E2F7CB018170FA01808380E0089520B324
S113047030E0B90102C0759567958A95E2F7CB0122
S11304808170FA01808380E0089581E0089581E01D
S1130490089541E063E087E00E94C400811105C033
S11304A041E063E087E00E94630146E063E086E0A8
S11304B00E94C400811105C041E063E086E00E940F
S11304C063010895EE0FFF1F0590F491E02D099448
S10704D0F894FFCFCA
S9030000FC
