S01D000045534C315F30345F4C656453657175656E636556332E73726563F9
S11300000C9432000C9424040C944D040C94760447
S11300100C9444000C9444000C9444000C9444004C
S11300200C9444000C9444000C9444000C94F30489
S11300300C9444000C9444000C9444000C9444002C
S11300400C9444000C9444000C9444000C9444001C
S11300500C944400C700E3000701330167019801D1
S1130060C101E20111241FBECFE5D8E0DEBFCDBF40
S113007020E0A0E6B0E001C01D92A337B207E1F78B
S11300800E942F020C943C050C94000080916400A3
S11300908F5F8093640080916400853011F4109226
S11300A064000895809165008F5F8093650080915E
S11300B06500893019F481E080936500089580918A
S11300C0600090916100A0916200B091630001967C
S11300D0A11DB11D8093600090936100A093620004
S11300E0B093630040916F00509170006091710073
S11300F07091720084179507A607B70751F4109200
S113010060001092610010926200109263000E94DD
S1130110B604089560E080E00E941D0260E081E082
S11301200E941D0260E082E00E941D0260E083E004
S11301300E941D0262E080E00E94840362E570E098
S113014080E00E940B0462E081E00E94840366E484
S113015070E081E00E940B040E949F048FE590E010
S11301600E94EE0408950F931F93CF93DF93EB0146
S1130170E09165004E2F50E0FA013197E830F10527
S113018008F024C18C01E65DFF4F0C941C0560E06F
S113019080E00E942302B80180E090E00E94C00445
S11301A00E94AC0483B78111FDCF60E00E94290254
S11301B0BE0180E090E00E94C0040E94AC0483B7BA
S11301C08111FDCF03C160E080E00E94230260E062
S11301D081E00E942302B80180E090E00E94C00404
S11301E00E94AC0483B78111FDCF60E00E94290214
S11301F060E081E00E942902BE0180E090E00E945C
S1130200C0040E94AC0483B78111FDCFDFC060E05D
S113021080E00E94230260E081E00E94230260E00B
S113022082E00E942302B80180E090E00E94C004B2
S11302300E94AC0483B78111FDCF60E00E942902C3
S113024060E081E00E94290260E082E00E942902CD
S1130250BE0180E090E00E94C0040E94AC0483B719
S11302608111FDCFB3C060E080E00E94230260E012
S113027081E00E94230260E082E00E94230260E0A9
S113028083E00E942302B80180E090E00E94C00451
S11302900E94AC0483B78111FDCF60E00E94290263
S11302A060E081E00E94290260E082E00E9429026D
S11302B060E083E00E942902BE0180E090E00E9499
S11302C0C0040E94AC0483B78111FDCF7FC060E0FD
S11302D080E00E94290260E081E00E94230260E045
S11302E082E00E94230260E083E00E942302B801BE
S11302F080E090E00E94C0040E94AC0483B78111A6
S1130300FDCF60E081E00E94290260E082E00E946B
S1130310290260E083E00E942902BE0180E090E0AF
S11303200E94C0040E94AC0483B78111FDCF4EC06B
S113033060E081E00E94290260E082E00E942302E2
S113034060E083E00E942302B80180E090E00E9414
S1130350C0040E94AC0483B78111FDCF60E082E049
S11303600E94290260E083E00E942902BE0180E02D
S113037090E00E94C0040E94AC0483B78111FDCFB9
S113038025C060E082E00E94290260E083E00E94D0
S11303902302B80180E090E00E94C0040E94AC04F3
S11303A083B78111FDCF60E083E00E942902BE0182
S11303B080E090E00E94C0040E94AC0483B78111E5
S11303C0FDCF04C060E083E00E942902DF91CF9159
S11303D01F910F910895809164008230C9F028F430
S11303E0882341F0813069F0F6CF8330C1F0843046
S11303F0E9F0F1CF64E873E084E690E00E94B30092
S1130400EACF60E273E088EC90E00E94B300E3CFAF
S11304106CEB72E08CE291E00E94B300DCCF64EFFD
S113042071E084EF91E00E94B300D5CF68EC70E0F6
S113043080E293E00E94B300CECF41E00E943602F6
S1130440811181E0089541E00E94D502811181E08B
S1130450089540E00E94D502811181E008950E9430
S11304608A000E94EB0180E090E00895883008F053
S113047090C0613051F138F0623009F448C0633003
S113048009F466C088C041110FC04AB321E030E0CE
S1130490B90102C0660F771F8A95E2F7CB018095F8
S11304A084238ABB80E00895413009F076C04AB3C2
S11304B021E030E0B90102C0660F771F8A95E2F7A8
S11304C0CB01842B8ABB80E0089541110FC047B350
S11304D021E030E0B90102C0660F771F8A95E2F788
S11304E0CB018095842387BB80E00895413009F0D7
S11304F056C047B321E030E0B90102C0660F771F50
S11305008A95E2F7CB01842B87BB80E008954111E3
S11305100FC044B321E030E0B90102C0660F771F79
S11305208A95E2F7CB018095842384BB80E008950B
S11305304130B9F544B321E030E0B90102C0660F9F
S1130540771F8A95E2F7CB01842B84BB80E0089562
S113055041110FC041B321E030E0B90102C0660F80
S1130560771F8A95E2F7CB018095842381BB80E0D5
S113057008954130C1F441B321E030E0B90102C033
S1130580660F771F8A95E2F7CB01842B81BB80E04D
S1130590089581E0089581E0089581E0089581E05F
S11305A0089581E0089581E00895883008F090C0AE
S11305B0613051F138F0623009F448C0633009F415
S11305C066C088C041110FC04BB321E030E0B901CF
S11305D002C0660F771F8A95E2F7CB0180958423CA
S11305E08BBB80E00895413009F076C04BB321E025
S11305F030E0B90102C0660F771F8A95E2F7CB019C
S1130600842B8BBB80E0089541110FC048B321E0D7
S113061030E0B90102C0660F771F8A95E2F7CB017B
S11306208095842388BB80E00895413009F056C04A
S113063048B321E030E0B90102C0660F771F8A9504
S1130640E2F7CB01842B88BB80E0089541110FC0F1
S113065045B321E030E0B90102C0660F771F8A95E7
S1130660E2F7CB018095842385BB80E00895413077
S1130670B9F545B321E030E0B90102C0660F771F38
S11306808A95E2F7CB01842B85BB80E00895411164
S11306900FC042B321E030E0B90102C0660F771FFA
S11306A08A95E2F7CB018095842382BB80E008958C
S11306B04130C1F442B321E030E0B90102C0660F19
S11306C0771F8A95E2F7CB01842B82BB80E00895E3
S11306D081E0089581E0089581E0089581E008951E
S11306E081E0089581E00895813029F48FB780680E
S11306F08FBF80E00895811105C08FB78F778FBFBA
S113070080E0089581E00895CF93DF93C82FD62F1A
S113071081E00E947403C13099F120F0C23009F4E1
S11307205DC072C0D11107C085B78E7F85BF85B704
S11307308D7F85BF20C0D13039F485B78E7F85BFCA
S113074085B7826085BF17C0D23039F485B7816020
S113075085BF85B7826085BF0EC0D33039F485B7B5
S1130760816085BF85B78D7F85BF05C080E00E940D
S1130770740381E04DC08BB780648BBF80E048C0B8
S1130780D11107C085B78B7F85BF85B7877F85BFAC
S113079020C0D13039F485B78B7F85BF85B7886099
S11307A085BF17C0D23039F485B7846085BF85B75B
S11307B0886085BF0EC0D33039F485B7846085BFA7
S11307C085B7877F85BF05C080E00E94740381E000
S11307D01FC08BB780688BBF80E01AC0D13021F472
S11307E084B78F7B84BF0BC0D23021F484B780647C
S11307F084BF05C080E00E94740381E009C08BB708
S113080080628BBF80E004C080E00E94740381E0BA
S1130810DF91CF910895811105C070936B006093AF
S11308206A000895813031F4709369006093680020
S113083080E00895823031F470936700609366001D
S113084080E0089581E008951F920F920FB60F92F1
S113085011242F933F934F935F936F937F938F93C1
S11308609F93AF93BF93EF93FF93E0916A00F0914E
S11308706B00309709F00995FF91EF91BF91AF910B
S11308809F918F917F916F915F914F913F912F91A4
S11308900F900FBE0F901F9018951F920F920FB6D6
S11308A00F9211242F933F934F935F936F937F93F2
S11308B08F939F93AF93BF93EF93FF93E09168005F
S11308C0F0916900309709F00995FF91EF91BF917C
S11308D0AF919F918F917F916F915F914F913F91D4
S11308E02F910F900FBE0F901F9018951F920F928B
S11308F00FB60F9211242F933F934F935F936F93EF
S11309007F938F939F93AF93BF93EF93FF93E09164
S11309106600F0916700309709F00995FF91EF9117
S1130920BF91AF919F918F917F916F915F914F9103
S11309303F912F910F900FBE0F901F90189583B782
S1130940877F83BF83B78F7B83BF8FB780688FBF59
S113095089B7816089BF089583B7816083BF83B7F6
S11309608D7F83BF83B78B7F83BF089583B78E7FCB
S113097083BF83B78D7F83BF83B78B7F83BF089586
S11309800F931F939B01AC01A8EEB3E00E942205D4
S1130990072F182F292F332700936F00109370000F
S11309A02093710030937200619560936E0062BF72
S11309B080916F0090917000A0917100B0917200CD
S11309C00196A11DB11D80936F0090937000A093B8
S11309D07100B09372001F910F91089590936D0070
S11309E080936C0008951F920F920FB60F921124FA
S11309F02F933F934F935F936F937F938F939F9323
S1130A00AF93BF93EF93FF93E0916C00F0916D006F
S1130A10309709F00995FF91EF91BF91AF919F91A4
S1130A208F917F916F915F914F913F912F910F9093
S1130A300FBE0F901F901895EE0FFF1F0590F491B5
S1130A40E02D09940E942D05A59F900DB49F900D53
S1130A50A49F800D911D11240895A29FB001B39FFE
S1130A60C001A39F700D811D1124911DB29F700DB3
S10F0A70811D1124911D0895F894FFCFFE
S9030000FC
