:100000000C942A000C94A7050C94D0050C94F905C7
:100010000C9447000C9447000C9447000C94470044
:100020000C9447000C9447000C9447000C94AC06C9
:100030000C9447000C9447000C9447000C94470024
:100040000C9447000C9447000C9447000C94470014
:100050000C94470011241FBECFE5D8E0DEBFCDBF12
:1000600010E0A0E6B0E0E8E3FEE002C005900D92EB
:10007000AE36B107D9F720E0AEE6B0E001C01D9280
:10008000A338B207E1F70E9466030C941A070C9498
:100090000000809170008F5F80937000089581E070
:1000A0008093720008958CE690E00E9439038111DC
:1000B00015C08AE690E00E94390381110FC088E6DE
:1000C00090E00E943903811109C086E690E00E9409
:1000D0003903811103C081E080936E0080916E002E
:1000E000813041F484E690E00E941603813011F4DF
:1000F00010926E0080916E00813091F462E082E097
:100100000E94040581110AC069E470E082E00E9447
:100110008805813029F410926E0002C010926E00A2
:1001200080916E00813039F480E690E00E942206D2
:10013000811110926E0008950F931F93CF93DF9358
:10014000EC018B01809171008130D9F580916F00B5
:10015000811111C08CE690E00E944803BE0180E04E
:1001600090E00E9480060E946C0680916F008F5F75
:1001700080936F00FAC18130B9F490917200913090
:1001800099F4109272008CE690E00E945703B80137
:1001900080E090E00E9480060E946C0680916F00D3
:1001A0008F5F80936F00E1C1823009F0DEC18091E2
:1001B0007200813009F0D9C11092720010926F0064
:1001C000D4C1823009F043C080916F00811115C005
:1001D0008CE690E00E9448038AE690E00E94480383
:1001E000BE0180E090E00E9480060E946C06809133
:1001F0006F008F5F80936F00B8C18130D9F4909108
:1002000072009130B9F4109272008CE690E00E9476
:1002100057038AE690E00E945703B80180E090E01F
:100220000E9480060E946C0680916F008F5F809311
:100230006F009BC1823009F098C1809172008130BB
:1002400009F093C11092720010926F008EC183303A
:1002500009F04BC080916F00811119C08CE690E0CD
:100260000E9448038AE690E00E94480388E690E0F6
:100270000E944803BE0180E090E00E9480060E9438
:100280006C0680916F008F5F80936F006EC181302C
:10029000F9F4909172009130D9F4109272008CE6CA
:1002A00090E00E9457038AE690E00E94570388E698
:1002B00090E00E945703B80180E090E00E94800621
:1002C0000E946C0680916F008F5F80936F004DC11C
:1002D000823009F04AC180917200813009F045C135
:1002E0001092720010926F0040C1843009F053C028
:1002F00080916F0081111DC08CE690E00E94480340
:100300008AE690E00E94480388E690E00E94480355
:1003100086E690E00E944803BE0180E090E00E94E3
:1003200080060E946C0680916F008F5F80936F0043
:100330001CC1813019F5909172009130F9F410923E
:1003400072008CE690E00E9457038AE690E00E94DB
:10035000570388E690E00E94570386E690E00E94EB
:100360005703B80180E090E00E9480060E946C066E
:1003700080916F008F5F80936F00F7C0823009F02B
:10038000F4C080917200813009F0EFC010927200C9
:1003900010926F00EAC0853009F04FC080916F0065
:1003A00081111DC08CE690E00E9457038AE690E020
:1003B0000E94480388E690E00E94480386E690E0A9
:1003C0000E944803BE0180E090E00E9480060E94E7
:1003D0006C0680916F008F5F80936F00C6C0813084
:1003E000F9F4909172009130D9F4109272008AE67B
:1003F00090E00E94570388E690E00E94570386E64B
:1004000090E00E945703B80180E090E00E948006CF
:100410000E946C0680916F008F5F80936F00A5C073
:10042000823009F0A2C080917200813009F09DC035
:100430001092720010926F0098C0863009F047C089
:1004400080916F00811119C08AE690E00E945703E5
:1004500088E690E00E94480386E690E00E94480308
:10046000BE0180E090E00E9480060E946C068091B0
:100470006F008F5F80936F0078C08130D9F49091C6
:1004800072009130B9F41092720088E690E00E94F8
:10049000570386E690E00E945703B80180E090E0A1
:1004A0000E9480060E946C0680916F008F5F80938F
:1004B0006F005BC0823009F058C0809172008130BB
:1004C00009F053C01092720010926F004EC0873036
:1004D000E9F580916F00811115C088E690E00E94D7
:1004E000570386E690E00E944803BE0180E090E05A
:1004F0000E9480060E946C0680916F008F5F80933F
:100500006F0033C08130B9F490917200913099F44A
:100510001092720086E690E00E945703B80180E0D6
:1005200090E00E9480060E946C0680916F008F5FB1
:1005300080936F001AC08230C1F4809172008130C4
:10054000A1F41092720010926F000FC0883029F44D
:1005500086E690E00E94570308C0893021F481E0CC
:100560008093710002C010927100DF91CF911F91B2
:100570000F910895CF93DF931F92CDB7DEB7198205
:1005800080916E00813009F04DC0BE016F5F7F4FDA
:1005900084E690E00E9425038981813089F407C0B8
:1005A000BE016F5F7F4F84E690E00E942503898142
:1005B0008130B1F3809171008F5F80937100E5CF3E
:1005C00080917000811107C064E873E084E690E0D8
:1005D0000E949C00DACF813039F460E273E088EC4D
:1005E00090E00E949C00D1CF823039F46CEB72E035
:1005F0008CE291E00E949C00C8CF833039F464EF14
:1006000071E084EF91E00E949C00BFCF843039F408
:1006100068EC70E080E293E00E949C00B6CF1092FC
:100620007000B3CF0F90DF91CF910895009749F0FC
:10063000FC01618140E080810E946D03811103C053
:10064000089581E0089581E00895009761F06115B3
:10065000710559F0AB01FC01618180810E94AB04FE
:10066000811105C0089581E0089581E0089581E039
:100670000895009749F0FC01618141E080810E946A
:100680006D03811103C0089581E0089581E008950C
:10069000009749F0FC01618141E080810E940C04D7
:1006A000811103C0089581E0089581E008950097C5
:1006B00049F0FC01618140E080810E940C048111BD
:1006C00003C0089581E0089581E008950E945300D9
:1006D0000E94BA0280E090E00895883008F090C04F
:1006E000613051F138F0623009F448C0633009F4E8
:1006F00066C088C041110FC04AB321E030E0B901A3
:1007000002C0660F771F8A95E2F7CB01809584239C
:100710008ABB80E00895413009F076C04AB321E0F9
:1007200030E0B90102C0660F771F8A95E2F7CB016E
:10073000842B8ABB80E0089541110FC047B321E0AC
:1007400030E0B90102C0660F771F8A95E2F7CB014E
:100750008095842387BB80E00895413009F056C01E
:1007600047B321E030E0B90102C0660F771F8A95D8
:10077000E2F7CB01842B87BB80E0089541110FC0C5
:1007800044B321E030E0B90102C0660F771F8A95BB
:10079000E2F7CB018095842384BB80E0089541304B
:1007A000B9F544B321E030E0B90102C0660F771F0C
:1007B0008A95E2F7CB01842B84BB80E00895411138
:1007C0000FC041B321E030E0B90102C0660F771FCE
:1007D0008A95E2F7CB018095842381BB80E0089560
:1007E0004130C1F441B321E030E0B90102C0660FED
:1007F000771F8A95E2F7CB01842B81BB80E00895B7
:1008000081E0089583E0089582E0089582E00895EC
:1008100082E0089582E00895883008F090C0613049
:1008200051F138F0623009F448C0633009F466C011
:1008300088C041110FC04BB321E030E0B90102C0C4
:10084000660F771F8A95E2F7CB01809584238BBBD7
:1008500080E00895413009F076C04BB321E030E0EC
:10086000B90102C0660F771F8A95E2F7CB01842B8E
:100870008BBB80E0089541110FC048B321E030E008
:10088000B90102C0660F771F8A95E2F7CB01809508
:10089000842388BB80E00895413009F056C048B3F6
:1008A00021E030E0B90102C0660F771F8A95E2F7B8
:1008B000CB01842B88BB80E0089541110FC045B364
:1008C00021E030E0B90102C0660F771F8A95E2F798
:1008D000CB018095842385BB80E008954130B9F534
:1008E00045B321E030E0B90102C0660F771F8A9559
:1008F000E2F7CB01842B85BB80E0089541110FC046
:1009000042B321E030E0B90102C0660F771F8A953B
:10091000E2F7CB018095842382BB80E008954130CB
:10092000C1F442B321E030E0B90102C0660F771F85
:100930008A95E2F7CB01842B82BB80E0089581E0A9
:10094000089583E0089584E0089584E0089584E0A4
:10095000089584E008954115510509F443C0883095
:1009600008F042C06130A1F028F06230F9F0633045
:1009700059F13CC029B330E0B90102C075956795C3
:100980008A95E2F7CB018170FA01808380E00895B7
:1009900026B330E0B90102C0759567958A95E2F7F4
:1009A000CB018170FA01808380E0089523B330E0A9
:1009B000B90102C0759567958A95E2F7CB01817000
:1009C000FA01808380E0089520B330E0B90102C0CD
:1009D000759567958A95E2F7CB018170FA0180835E
:1009E00080E0089585E0089581E0089583E008950A
:1009F000813021F48FB780688FBF0895811103C0C3
:100A00008FB78F778FBF0895CF938130A1F120F0FA
:100A1000823009F45FC073C0611108C085B78E7F52
:100A200085BF85B78D7F85BFC0E01FC0613041F4B1
:100A300085B78E7F85BF85B7826085BFC0E015C052
:100A4000623041F485B7816085BF85B7826085BF1C
:100A5000C0E00BC0633041F485B7816085BF85B7C6
:100A60008D7F85BFC0E001C0C1E0C11149C08BB717
:100A700080648BBF45C0611108C085B78B7F85BF7F
:100A800085B7877F85BFC0E01FC0613041F485B75F
:100A90008B7F85BF85B7886085BFC0E015C0623099
:100AA00041F485B7846085BF85B7886085BFC0E0A5
:100AB0000BC0633041F485B7846085BF85B7877FFD
:100AC00085BFC0E001C0C1E0C1111AC08BB780680A
:100AD0008BBF16C0613029F484B78F7B84BFC0E020
:100AE00008C0623029F484B7806484BFC0E001C0CC
:100AF000C1E0C11105C08BB780628BBF01C0C1E0EE
:100B0000C11103C081E00E94F8048C2FCF91089599
:100B100061157105C1F0813051F018F0823069F033
:100B200014C0709378006093770080E0089570930C
:100B300076006093750080E0089570937400609370
:100B4000730080E0089581E0089581E008951F9288
:100B50000F920FB60F9211242F933F934F935F93F1
:100B60006F937F938F939F93AF93BF93EF93FF9375
:100B7000E0917700F0917800309709F00995FF91A6
:100B8000EF91BF91AF919F918F917F916F915F9105
:100B90004F913F912F910F900FBE0F901F9018957E
:100BA0001F920F920FB60F9211242F933F934F93E2
:100BB0005F936F937F938F939F93AF93BF93EF93C5
:100BC000FF93E0917500F0917600309709F0099558
:100BD000FF91EF91BF91AF919F918F917F916F9115
:100BE0005F914F913F912F910F900FBE0F901F90EB
:100BF00018951F920F920FB60F9211242F933F93C7
:100C00004F935F936F937F938F939F93AF93BF9314
:100C1000EF93FF93E0917300F0917400309709F027
:100C20000995FF91EF91BF91AF919F918F917F9126
:100C30006F915F914F913F912F910F900FBE0F9049
:100C40001F901895FC01892B09F442C080818130E6
:100C500071F028F0823099F08330C9F020C083B75A
:100C6000877F83BF83B78F7B83BF80E019C083B743
:100C7000886083BF83B78F7B83BF80E011C083B759
:100C8000886083BF83B7806483BF80E009C083B777
:100C9000877F83BF83B7806483BF80E001C082E029
:100CA000811119C09181911116C09081911113C0C9
:100CB000228133812115310569F030937E00209324
:100CC0007D009FB790689FBF99B7916099BF0895C5
:100CD00081E0089583E0089583B78E7F83BF83B753
:100CE000826083BF83B78B7F83BF089583B78E7F76
:100CF00083BF83B78D7F83BF83B78B7F83BF089507
:100D00000F931F939B01AC01A8EEB3E00E94000774
:100D1000072F182F292F332700937F00109380006F
:100D20002093810030938200619562BF80917F00A3
:100D300090918000A0918100B09182000196A11D48
:100D4000B11D80937F0090938000A0938100B093A9
:100D500082001F910F9108951F920F920FB60F926C
:100D600011242F933F934F935F936F937F938F93B0
:100D70009F93AF93BF93EF93FF93809179009091EE
:100D80007A00A0917B00B0917C0040917F0050914F
:100D90008000609181007091820084179507A607FA
:100DA000B70791F41092790010927A0010927B00AC
:100DB00010927C000E947606E0917D00F0917E000A
:100DC000309769F009950BC00196A11DB11D809364
:100DD000790090937A00A0937B00B0937C00FF9100
:100DE000EF91BF91AF919F918F917F916F915F91A3
:100DF0004F913F912F910F900FBE0F901F9018951C
:100E00000E940B07A59F900DB49F900DA49F800D8D
:100E1000911D11240895A29FB001B39FC001A39F0B
:100E2000700D811D1124911DB29F700D811D112423
:080E3000911D0895F894FFCF15
:0E0E380000004F00040207010601050104013D
:00000001FF
