S010000042434D5F4D4355312E73726563CD
S11300000C942A000C9447000C9447000C9447006D
S11300100C9447000C9447000C9447000C94470040
S11300200C9447000C9447000C9447000C94470030
S11300300C9447000C94F1020C9447000C9439037F
S11300400C9447000C9447000C9447000C94470010
S11300500C94470011241FBECFE5D8E0DEBFCDBF0E
S113006012E0A0E6B0E0ECEEF7E002C005900D92DD
S1130070AE3DB107D9F723E0AEEDB2E001C01D9269
S1130080AC3BB207E1F70E94D5000C94F4030C9446
S1130090000080EF91E00E94C4008AEE92E00E948A
S11300A0C400811106C082EF91E00E94C40088233D
S11300B019F083E08093E9028FED92E00E946C03D3
S11300C08093DE0281111AC08091E9028330B1F07D
S11300D0E0E6F0E001900020E9F73197AF014056E7
S11300E0504060E670E08FED92E00E94AB03809395
S11300F0DE02882319F083E08093E9020895809159
S1130100E9028130F1F028F0823021F18330B9F135
S113011008958FED92E00E94D9038093DE0283302C
S113012021F481E08093E9020895843021F482E08F
S11301308093E9020895823031F583E08093E902E7
S113014008958AEE92E00E94CD001092BB031092B3
S1130150E90208956EEE72E088E291E00E94EB03FA
S1130160892B49F482EF91E00E94CD001092BA03EA
S11301701092E902089583E08093E902089580EFE4
S113018091E00E94CD00089541E0FC0161818081ED
S11301900E94DA00811181E00895FC01618180816F
S11301A00E947901811181E008950E9449000E9412
S11301B07F00FDCF883008F090C0613051F138F0F5
S11301C0623009F448C0633009F466C088C0411144
S11301D00FC04AB321E030E0B90102C0660F771FB7
S11301E08A95E2F7CB01809584238ABB80E0089549
S11301F0413009F076C04AB321E030E0B90102C0D1
S1130200660F771F8A95E2F7CB01842B8ABB80E0C7
S1130210089541110FC047B321E030E0B90102C095
S1130220660F771F8A95E2F7CB018095842387BBFD
S113023080E00895413009F056C047B321E030E032
S1130240B90102C0660F771F8A95E2F7CB01842BB0
S113025087BB80E0089541110FC044B321E030E032
S1130260B90102C0660F771F8A95E2F7CB0180952A
S1130270842384BB80E008954130B9F544B321E080
S113028030E0B90102C0660F771F8A95E2F7CB010F
S1130290842B84BB80E0089541110FC041B321E059
S11302A030E0B90102C0660F771F8A95E2F7CB01EF
S11302B08095842381BB80E008954130C1F441B32B
S11302C021E030E0B90102C0660F771F8A95E2F79A
S11302D0CB01842B81BB80E0089581E0089581E007
S11302E0089581E0089581E0089581E0089581E012
S11302F00895883008F040C06130A1F028F06230E1
S1130300F9F0633059F13AC04BB321E030E0B90160
S113031002C0660F771F8A95E2F7CB0184278BBB57
S113032080E0089548B321E030E0B90102C0660FCF
S1130330771F8A95E2F7CB01842788BB80E0089574
S113034045B321E030E0B90102C0660F771F8A95FA
S1130350E2F7CB01842785BB80E0089542B321E016
S113036030E0B90102C0660F771F8A95E2F7CB012E
S1130370842782BB80E0089581E0089581E0089598
S11303809091BC029F3F11F41092BC02ADEBB2E01D
S1130390EC91EF5FEC930E2E000CFF0BEC50FE4F34
S11303A0808380E00895E091BC028091BD028E17A5
S11303B014F0EF3F39F48FEF8093BC028093BD02B9
S11303C084E008950E2E000CFF0BEC50FE4F80814C
S11303D08CB9ECEBF2E080818F5F808380E008953C
S11303E080E019C0282F30E0F901EE0FFF1FE20F63
S11303F0F31FEE0FFF1FE254FD4F908189130AC0D3
S1130400F901EE0FFF1FE20FF31FEE0FFF1FE2547F
S1130410FD4F05C08F5F823028F3E0E0F0E03097B5
S113042009F492C080B5806880BD9181992319F048
S1130430913029F008C08F7B80BD80E005C08064C6
S113044080BD80E001C082E0811116C092819130AC
S113045049F018F0923059F00EC09AB19F7E98601E
S11304609AB90AC09AB19061977F9AB905C09AB1B6
S113047098619AB901C082E0811114C093819130CE
S113048041F058F0923069F490B59F7E906290BD2F
S113049009C090B5906390BD05C090B59F7C90BD98
S11304A001C082E081110FC09481992319F0913029
S11304B029F008C090B5977F90BD05C090B59860AD
S11304C090BD01C082E0811134C095819230D1F099
S11304D028F4992341F0913069F02AC09330D1F087
S11304E09430F9F025C090B5997F90BD9AB19B7F67
S11304F09AB91FC090B592609B7F90BD9AB19B7FC3
S11305009AB917C090B59D7F946090BD9AB19B7FB6
S11305109AB90FC090B5966090BD9AB19B7F9AB975
S113052008C090B5966090BD9AB194609AB901C024
S113053082E09AB1906C9AB978949BB19D7F9BB9F3
S113054093E399B910BC089581E00895CF93C82F1F
S113055081E00E94C0018C2F0E94C0010E94D3013F
S113056080E0CF910895FF920F931F93CF93DF9371
S11305700097B9F0F62E8C01862F0E94C001C0E0CE
S1130580D0E00AC0F801EC0FF11D80810E94C00187
S1130590D82F811103C0CF5FCF15A0F30E94D301E0
S11305A001C0D5E08D2FDF91CF911F910F91FF9066
S11305B008956115710589F0882319F0813039F0A7
S11305C00EC07093B9036093B80380E008957093EC
S11305D0B7036093B60380E0089585E0089585E04D
S11305E008951F920F920FB60F9211242F933F93E9
S11305F04F935F936F937F938F939F93AF93BF9327
S1130600EF93FF938091EC02811104C08CB180932D
S1130610EC020DC09091ED02981748F4E92FF0E038
S11306208CB1E251FD4F80839F5F9093ED029091D6
S1130630ED028091EC0298130BC0882349F01092CC
S1130640ED021092EC02E091B603F091B703099524
S1130650FF91EF91BF91AF919F918F917F916F9196
S11306605F914F913F912F910F900FBE0F901F906C
S113067018951F920F920FB60F9211242F933F9348
S11306804F935F936F937F938F939F93AF93BF9396
S1130690EF93FF930E94D301843029F4E091B803CF
S11306A0F091B9030995FF91EF91BF91AF919F919B
S11306B08F917F916F915F914F913F912F910F9007
S11306C00FBE0F901F90189581E08093BB0308958F
S11306D081E08093BA0308950F931F93CF930097FB
S11306E099F1C0E02BC0DC0111966C914C2F50E0C5
S11306F0FA01EE0FFF1F9A01220F331F220F331F3F
S1130700220F331FE20FF31FE653FD4F21816213C3
S113071014C08F010280F381E02D862F0995F80122
S11307200085118564E673E080E0F801099568E6C8
S113073073E081E0F801099503C0CF5FC23098F2FD
S1130740C23021F080E003C082E001C081E0CF919B
S11307501F910F910895CF93009721F1C0E01EC01F
S1130760FC015181AC2FB0E0FD01EE0FFF1F9D0194
S1130770220F331F220F331F220F331FE20FF31FE9
S1130780E653FD4F2181521308C0CB010680F78147
S1130790E02D642F099580E007C0CF5FC23000F3DD
S11307A080E002C0C0E082E0C23009F481E0CF9171
S11307B00895892B51F08091BB03813041F08091E1
S11307C0BA03813031F080E0089582E0089583E037
S11307D0089584E00895FB01DC018D910190801956
S10F07E00110D9F3990B0895F894FFCF91
S11307EC42434D204F5045524154494E470000005E
S11307FC00000000000000000000000000000000E9
S113080C00000000000000000000000000000000D8
S113081C00000000000000000000000000000000C8
S113082C00000000000000000000000000000000B8
S113083C00000000000000000000000000000000A8
S113084C0000000000000000000000000000000098
S113085C0000000000000000000000000000000088
S113086C0000000000000000000000000000000078
S113087C0000000000000000000000000000000068
S113088C0000000000000000000000000000000058
S113089C0000000000000000000000000000000048
S11308AC0000000000000000434F4E4649524D200A
S11308BC42434D204F5045524154494E470000008D
S11308CC0000000000000000000000000000000018
S11308DC0000000000000000000000000000000008
S11308EC00000000000000000000000000000000F8
S11308FC00000000000000000000000000000000E8
S113090C00000000000000000000000000000000D7
S113091C00000000000000000000000000000000C7
S113092C00000000000000000000000000000000B7
S113093C00000000000000000000000000000000A7
S113094C0000000000000000000000000000000097
S113095C0000000000000000000000000000000087
S113096C0000000000000000000000000000000077
S113097C0200010000000000000000000000000064
S113098C0000000000000000000000000000000057
S113099C0000000000000000000000000000000047
S11309AC0000000000000000000000000000000037
S11309BC0000000000000000000000000000000027
S11309CC0000000000000000000000000000000017
S11309DC0000000000000000000000000000000007
S11309EC00000000000000000000000000000000F7
S11309FC00000000000000000000000000000000E7
S1130A0C00000000000000000000000000000000D6
S1130A1C00000000000000000000000000000000C6
S1130A2C00000000000000000000000000000000B6
S1130A3C000000000000000000000000FFFF0000A8
S1130A4C020000030100000201030000F001A602F1
S1110A5CB302D90201010000000000000000F6
S9030000FC
