S010000042434D5F4D4355322E73726563CC
S11300000C942A000C9447000C9447000C9447006D
S11300100C9447000C9447000C9447000C94470040
S11300200C9447000C9447000C9447000C94470030
S11300300C9447000C94D1020C9447000C940D03CB
S11300400C9447000C9447000C9447000C94470010
S11300500C94470011241FBECFE5D8E0DEBFCDBF0E
S113006011E0A0E6B0E0E4EAF7E002C005900D92EA
S1130070A437B107D9F722E0A4E7B1E001C01D928B
S1130080A135B207E1F70E94BC000C94D0030C9494
S1130090000084E890E00E94AB0080E891E00E94B8
S11300A0AB00811106C086E890E00E94AB00882373
S11300B019F081E080937F0185E791E00E94440379
S11300C080937401882339F080917F01813019F085
S11300D081E080937F01089580917F01882319F046
S11300E08130A1F1089585E791E00E94B1038093E6
S11300F07401833029F480E891E00E94B4000895EB
S11301008430F1F463E871E086E790E00E94C7036D
S1130110892B01F586E890E00E94B400E0E6F0E067
S113012001900020E9F73197AF014056504060E656
S113013070E085E791E00E94830380937401089541
S1130140823041F481E080937F01089584E890E057
S11301500E94B400089541E0FC01618180810E9405
S1130160C100811181E00895FC01618180810E94B8
S11301706001811181E008950E9449000E946C0091
S1130180FDCF883008F090C0613051F138F0623012
S113019009F448C0633009F466C088C041110FC037
S11301A04AB321E030E0B90102C0660F771F8A9597
S11301B0E2F7CB01809584238ABB80E00895413027
S11301C009F076C04AB321E030E0B90102C0660FFD
S11301D0771F8A95E2F7CB01842B8ABB80E00895D0
S11301E041110FC047B321E030E0B90102C0660FEE
S11301F0771F8A95E2F7CB018095842387BB80E043
S11302000895413009F056C047B321E030E0B90108
S113021002C0660F771F8A95E2F7CB01842B87BB58
S113022080E0089541110FC044B321E030E0B901EA
S113023002C0660F771F8A95E2F7CB01809584236D
S113024084BB80E008954130B9F544B321E030E047
S1130250B90102C0660F771F8A95E2F7CB01842BA0
S113026084BB80E0089541110FC041B321E030E028
S1130270B90102C0660F771F8A95E2F7CB0180951A
S1130280842381BB80E008954130C1F441B321E06F
S113029030E0B90102C0660F771F8A95E2F7CB01FF
S11302A0842B81BB80E0089581E0089581E0089566
S11302B081E0089581E0089581E0089581E0089542
S11302C0883008F040C06130A1F028F06230F9F0C5
S11302D0633059F13AC04BB321E030E0B90102C0B8
S11302E0660F771F8A95E2F7CB0184278BBB80E0EA
S11302F0089548B321E030E0B90102C0660F771FCA
S11303008A95E2F7CB01842788BB80E0089545B342
S113031021E030E0B90102C0660F771F8A95E2F749
S1130320CB01842785BB80E0089542B321E030E00F
S1130330B90102C0660F771F8A95E2F7CB018427C3
S113034082BB80E0089581E0089581E00895909152
S11303505101992314F410925101A2E5B1E0EC91FA
S1130360EF5FEC930E2E000CFF0BE757FF4F8083DB
S113037080E00895E0915101809152018E1714F0AC
S1130380EF3F39F48FEF809351018093520184E061
S113039008950E2E000CFF0BE757FF4F80818CB998
S11303A0E1E5F1E080818F5F808380E0089561154D
S11303B0710589F0882319F0813039F00EC07093EB
S11303C04E0260934D0280E0089570934C02609356
S11303D04B0280E0089585E0089585E0089580E06B
S11303E019C0282F30E0F901EE0FFF1FE20FF31FB1
S11303F0EE0FFF1FED5AFE4F908189130AC0F901D9
S1130400EE0FFF1FE20FF31FEE0FFF1FED5AFE4F1B
S113041005C08F5F823028F3E0E0F0E0309709F404
S113042092C080B5806880BD9181992319F0913084
S113043029F008C08F7B80BD80E005C0806480BD4A
S113044080E001C082E0811116C09281913049F0B0
S113045018F0923059F00EC09AB19F7E98609AB904
S11304600AC09AB19061977F9AB905C09AB1986110
S11304709AB901C082E0811114C09381913041F096
S113048058F0923069F490B59F7E906290BD09C097
S113049090B5906390BD05C090B59F7C90BD01C0A0
S11304A082E081110FC09481992319F0913029F0D1
S11304B008C090B5977F90BD05C090B5986090BD79
S11304C001C082E0811134C095819230D1F028F4CA
S11304D0992341F0913069F02AC09330D1F09430DF
S11304E0F9F025C090B5997F90BD9AB19B7F9AB9D8
S11304F01FC090B592609B7F90BD9AB19B7F9AB9C3
S113050017C090B59D7F946090BD9AB19B7F9AB9B6
S11305100FC090B5966090BD9AB19B7F9AB908C000
S113052090B5966090BD9AB194609AB901C082E08A
S11305309AB1906C9AB978949BB19D7F9BB993E3DF
S113054099B910BC089581E00895CF930E94A70142
S1130550C82F0E94BA018C2FCF910895FF920F9358
S11305601F93CF93DF930097A1F0F62E8C01C0E088
S1130570D0E00AC0F801EC0FF11D80810E94A701B0
S1130580D82F811103C0CF5FCF15A0F30E94BA0109
S113059001C0D5E08D2FDF91CF911F910F91FF9076
S11305A008951F920F920FB60F9211242F933F9329
S11305B04F935F936F937F938F939F93AF93BF9367
S11305C0EF93FF938091820190918800891748F4FA
S11305D0E82FF0E02CB1ED57FE4F20838F5F80931E
S11305E0820180918201981307C010928201E091E8
S11305F04B02F0914C020995FF91EF91BF91AF919D
S11306009F918F917F916F915F914F913F912F9126
S11306100F900FBE0F901F9018951F920F920FB658
S11306200F9211242F933F934F935F936F937F9374
S11306308F939F93AF93BF93EF93FF930E94BA015D
S1130640843029F4E0914D02F0914E020995FF9116
S1130650EF91BF91AF919F918F917F916F915F9136
S11306604F913F912F910F900FBE0F901F901895AF
S1130670809150028F5F80935002089580914F02C1
S11306808F5F80934F0208950F931F93CF9300972A
S113069099F1C0E02BC0DC0111966C914C2F50E015
S11306A0FA01EE0FFF1F9A01220F331F220F331F8F
S11306B0220F331FE20FF31FE15AFE4F2181621311
S11306C014C08F010280F381E02D862F0995F80173
S11306D00085118568E373E080E0F80109956EE315
S11306E073E081E0F801099503C0CF5FC23098F24E
S11306F0C23021F080E003C082E001C081E0CF91EC
S11307001F910F9108950F931F93CF938C01C0E015
S11307101DC0F8015181AC2FB0E0FD01EE0FFF1FA9
S11307209D01220F331F220F331F220F331FE20FAD
S1130730F31FE15AFE4F9181591307C0CB01068084
S1130740F781E02D642F099503C0CF5FC23008F311
S1130750C23011F080E001C081E0CF911F910F9170
S11307600895892B81F080915002813021F41092F8
S1130770500283E0089580914F02813031F4109249
S11307804F0284E0089582E0089580E00895FB011B
S1130790DC018D91019080190110D9F3990B089512
S10707A0F894FFCFF7
S11307A4434F4E4649524D2042434D204F504552EB
S11307B44154494E470042434D204F504552415401
S11307C4494E4700020001000D0000000000000033
S11307D40000000000000000000000000000000011
S11307E40000000000000000000000000000000001
S11307F400000000000000000000000000000000F1
S113080400000000000000000000000000000000E0
S113081400000000000000000000000000000000D0
S113082400000000000000000000000000000000C0
S113083400000000000000000000000000000000B0
S113084400000000000000000000000000000000A0
S11308540000000000000000000000000000000090
S11308640000000000000000000000000000000080
S11308740000000000000000000000000000000070
S11308840000000000000000000000000000000060
S113089400FFFF0000020000030100000201030046
S11308A400EF01A502AE02D701010100000000001F
S10708B4000000003C
S9030000FC
