:100000000C942A000C9447000C9447000C94470071
:100010000C9447000C9447000C9447000C94470044
:100020000C9447000C9447000C9447000C94470034
:100030000C9447000C94D4020C9447000C942103B8
:100040000C9447000C9447000C9447000C94470014
:100050000C94470011241FBECFE5D8E0DEBFCDBF12
:1000600011E0A0E6B0E0ECECF7E002C005900D92E4
:10007000A237B107D9F722E0A2E7B1E001C01D9293
:10008000A035B207E1F70E94BC000C94E4030C9485
:10009000000084E890E00E94AB008EE791E00E94AF
:1000A000AB00811106C086E890E00E94AB00882377
:1000B00019F081E080937D0183E791E00E9458036D
:1000C00080937201882339F080917D01813019F08D
:1000D00081E080937D01089580917D01882319F04E
:1000E0008130A1F1089583E791E00E94C5038093D8
:1000F0007201833029F48EE791E00E94B4000895E4
:100100008430F1F462E871E086E790E00E94DB035E
:10011000892B01F586E890E00E94B400E0E6F0E06B
:1001200001900020E9F73197AF014056504060E65A
:1001300070E083E791E00E94970380937201089535
:10014000823041F481E080937D01089584E890E05D
:100150000E94B400089541E0FC01618180810E9409
:10016000C100811181E00895FC01618180810E94BC
:100170006001811181E008950E9449000E946C0095
:10018000FDCF883008F090C0613051F138F0623016
:1001900009F448C0633009F466C088C041110FC03B
:1001A0004AB321E030E0B90102C0660F771F8A959B
:1001B000E2F7CB01809584238ABB80E0089541302B
:1001C00009F076C04AB321E030E0B90102C0660F01
:1001D000771F8A95E2F7CB01842B8ABB80E00895D4
:1001E00041110FC047B321E030E0B90102C0660FF2
:1001F000771F8A95E2F7CB018095842387BB80E047
:100200000895413009F056C047B321E030E0B9010C
:1002100002C0660F771F8A95E2F7CB01842B87BB5C
:1002200080E0089541110FC044B321E030E0B901EE
:1002300002C0660F771F8A95E2F7CB018095842371
:1002400084BB80E008954130B9F544B321E030E04B
:10025000B90102C0660F771F8A95E2F7CB01842BA4
:1002600084BB80E0089541110FC041B321E030E02C
:10027000B90102C0660F771F8A95E2F7CB0180951E
:10028000842381BB80E008954130C1F441B321E073
:1002900030E0B90102C0660F771F8A95E2F7CB0103
:1002A000842B81BB80E0089581E0089581E008956A
:1002B00081E0089581E0089581E0089581E0089546
:1002C000883008F040C06130A1F028F06230F9F0C9
:1002D000633059F13AC04BB321E030E0B90102C0BC
:1002E000660F771F8A95E2F7CB0184278BBB80E0EE
:1002F000089548B321E030E0B90102C0660F771FCE
:100300008A95E2F7CB01842788BB80E0089545B346
:1003100021E030E0B90102C0660F771F8A95E2F74D
:10032000CB01842785BB80E0089542B321E030E013
:10033000B90102C0660F771F8A95E2F7CB018427C7
:1003400082BB80E0089581E0089581E00895909156
:100350005001992314F410925001A1E5B1E0EC9101
:10036000EF5FEC930E2E000CFF0BE857FF4F8083DE
:1003700080E00895E0915001809151018E1714F0B2
:10038000EF3F39F48FEF809350018093510184E067
:1003900008950E2E000CFF0BE857FF4F80818CB99B
:1003A000E0E5F1E080818F5F808380E00895611552
:1003B000710589F0882319F0813039F00EC07093EF
:1003C0004D0260934C0280E0089570934B0260935D
:1003D0004A0280E0089585E0089585E0089580E070
:1003E00019C0282F30E0F901EE0FFF1FE20FF31FB5
:1003F000EE0FFF1FEE5AFE4F908189130AC0F901DC
:10040000EE0FFF1FE20FF31FEE0FFF1FEE5AFE4F1E
:1004100005C08F5F823028F3E0E0F0E0309709F408
:1004200092C080B5806880BD9181992319F0913088
:1004300029F008C08F7B80BD80E005C0806480BD4E
:1004400080E001C082E0811116C09281913049F0B4
:1004500018F0923059F00EC09AB19F7E98609AB908
:100460000AC09AB19061977F9AB905C09AB1986114
:100470009AB901C082E0811114C09381913041F09A
:1004800058F0923069F490B59F7E906290BD09C09B
:1004900090B5906390BD05C090B59F7C90BD01C0A4
:1004A00082E081110FC09481992319F0913029F0D5
:1004B00008C090B5977F90BD05C090B5986090BD7D
:1004C00001C082E0811134C095819230D1F028F4CE
:1004D000992341F0913069F02AC09330D1F09430E3
:1004E000F9F025C090B5997F90BD9AB19B7F9AB9DC
:1004F0001FC090B592609B7F90BD9AB19B7F9AB9C7
:1005000017C090B59D7F946090BD9AB19B7F9AB9BA
:100510000FC090B5966090BD9AB19B7F9AB908C004
:1005200090B5966090BD9AB194609AB901C082E08E
:100530009AB1906C9AB978949BB19D7F9BB993E3E3
:1005400099B910BC089581E00895CF930E94A70146
:10055000C82F0E94BA018C2FCF910895FF920F935C
:100560001F93CF93DF930097B9F0F62E8C01862F5F
:100570000E94A701C0E0D0E00AC0F801EC0FF11D15
:1005800080810E94A701D82F811103C0CF5FCF15B2
:10059000A0F30E94BA0101C0D5E08D2FDF91CF9169
:1005A0001F910F91FF9008951F920F920FB60F9217
:1005B00011242F933F934F935F936F937F938F9368
:1005C0009F93AF93BF93EF93FF938091800181112D
:1005D00009C08CB18093800180538A3080F480936D
:1005E00080010DC090918101981748F4E92FF0E047
:1005F0008CB1EE57FE4F80839F5F90938101909165
:1006000081018091800198130BC0882349F01092DA
:10061000810110928001E0914A02F0914B0209950C
:10062000FF91EF91BF91AF919F918F917F916F91CA
:100630005F914F913F912F910F900FBE0F901F90A0
:1006400018951F920F920FB60F9211242F933F937C
:100650004F935F936F937F938F939F93AF93BF93CA
:10066000EF93FF930E94BA01843029F4E0914C0289
:10067000F0914D020995FF91EF91BF91AF919F913C
:100680008F917F916F915F914F913F912F910F903B
:100690000FBE0F901F90189580914F028F5F80932F
:1006A0004F02089580914E028F5F80934E0208950D
:1006B0000F931F93CF93009799F1C0E02BC0DC01FB
:1006C00011966C914C2F50E0FA01EE0FFF1F9A012A
:1006D000220F331F220F331F220F331FE20FF31F8E
:1006E000E25AFE4F2181621314C08F010280F38110
:1006F000E02D862F0995F801008511856CE473E0E3
:1007000080E0F801099562E573E081E0F801099560
:1007100003C0CF5FC23098F2C23021F080E003C046
:1007200082E001C081E0CF911F910F9108950F9356
:100730001F93CF938C01C0E01DC0F8015181AC2FF5
:10074000B0E0FD01EE0FFF1F9D01220F331F220FAE
:10075000331F220F331FE20FF31FE25AFE4F918126
:10076000591307C0CB010680F781E02D642F09954E
:1007700003C0CF5FC23008F3C23011F080E001C087
:1007800081E0CF911F910F910895892B81F0809185
:100790004F02813021F410924F0283E0089580913E
:1007A0004E02813031F410924E0284E0089582E0CE
:1007B000089580E00895FB01DC018D91019080197E
:0C07C0000110D9F3990B0895F894FFCFB5
:1007CC00434F4E4649524D2042434D204F504552C7
:1007DC004154494E470042434D204F5045524154DD
:1007EC00494E47000200010000000000000000001C
:1007FC0000000000000000000000000000000000ED
:10080C0000000000000000000000000000000000DC
:10081C0000000000000000000000000000000000CC
:10082C0000000000000000000000000000000000BC
:10083C0000000000000000000000000000000000AC
:10084C00000000000000000000000000000000009C
:10085C00000000000000000000000000000000008C
:10086C00000000000000000000000000000000007C
:10087C00000000000000000000000000000000006C
:10088C00000000000000000000000000000000005C
:10089C00000000000000000000000000000000004C
:1008AC00000000000000000000000000000000003C
:1008BC00FFFF000002000003010000020103000022
:1008CC00EF01A502AE02D7010101000000000000FB
:0208DC0000001A
:00000001FF
